:0200000470008A
:10000000464346420004015600000000010303007D
:1000100000000000000000000000000000000000E0
:1000200000000000000000000000000000000000D0
:1000300000000000000000000000000000000000C0
:1000400000000000000408000000000000000000A4
:100050000000400000000000000000000000000060
:100060000000000000000000000000000000000090
:100070000000000000000000000000000000000080
:10008000EB04180A063204260000000000000000FD
:100090000000000000000000000000000000000060
:1000A0000000000000000000000000000000000050
:1000B0000000000000000000000000000000000040
:1000C0000000000000000000000000000000000030
:1000D0000000000000000000000000000000000020
:1000E0000000000000000000000000000000000010
:1000F0000000000000000000000000000000000000
:1001000000000000000000000000000000000000EF
:1001100000000000000000000000000000000000DF
:1001200000000000000000000000000000000000CF
:1001300000000000000000000000000000000000BF
:1001400000000000000000000000000000000000AF
:10015000000000000000000000000000000000009F
:10016000000000000000000000000000000000008F
:10017000000000000000000000000000000000007F
:10018000000000000000000000000000000000006F
:10019000000000000000000000000000000000005F
:1001A000000000000000000000000000000000004F
:1001B000000000000000000000000000000000003F
:1001C000000100000010000000000000000000001E
:1001D000000001000000000000000000000000001E
:1001E000000000000000000000000000000000000F
:1001F00000000000000000000000000000000000FF
:0200000470008A
:10100000D10020410020007000000000301000706E
:1010100020100070001000700000000000000000B0
:10102000000000700000400000000000FFFFFFFF14
:10103000D2043041CC03AC04400FC068FFFFFFFF77
:10104000400FC06CFFFFFFFF400FC070FFFFFFFFAE
:10105000400FC074FFFFFFFF400FC078FFFFFFFF8E
:10106000400FC07CFFFFFFFF400FC080FFFFFFFF6E
:10107000400D803000002001400D8100001D000067
:10108000400FC01400010D40401F801400000000FC
:10109000401F801800000000401F801C000000005E
:1010A000401F802000000000401F8024000000003E
:1010B000401F802800000000401F802C000000001E
:1010C000401F803000000000401F803400000000FE
:1010D000401F803800000000401F803C00000000DE
:1010E000401F804000000000401F804400000000BE
:1010F000401F804800000000401F804C000000009E
:10110000401F805000000000401F8054000000007D
:10111000401F805800000000401F805C000000005D
:10112000401F806000000000401F8064000000003D
:10113000401F806800000000401F806C000000001D
:10114000401F807000000000401F807400000000FD
:10115000401F807800000000401F807C00000000DD
:10116000401F808000000000401F808400000000BD
:10117000401F808800000000401F808C000000009D
:10118000401F809000000000401F8094000000007D
:10119000401F809800000000401F809C000000005D
:1011A000401F80A000000000401F80A4000000003D
:1011B000401F80A800000000401F80AC000000001D
:1011C000401F80B000000010401F80B400000000ED
:1011D000401F80B800000000401F8204000110F989
:1011E000401F8208000110F9401F820C000110F915
:1011F000401F8210000110F9401F8214000110F9F5
:10120000401F8218000110F9401F821C000110F9D4
:10121000401F8220000110F9401F8224000110F9B4
:10122000401F8228000110F9401F822C000110F994
:10123000401F8230000110F9401F8234000110F974
:10124000401F8238000110F9401F823C000110F954
:10125000401F8240000110F9401F8244000110F934
:10126000401F8248000110F9401F824C000110F914
:10127000401F8250000110F9401F8254000110F9F4
:10128000401F8258000110F9401F825C000110F9D4
:10129000401F8260000110F9401F8264000110F9B4
:1012A000401F8268000110F9401F826C000110F994
:1012B000401F8270000110F9401F8274000110F974
:1012C000401F8278000110F9401F827C000110F954
:1012D000401F8280000110F9401F8284000110F934
:1012E000401F8288000110F9401F828C000110F914
:1012F000401F8290000110F9401F8294000110F9F4
:10130000401F8298000110F9401F829C000110F9D3
:10131000401F82A0000110F9401F82A4000110F9B3
:10132000401F82A8000110F9402F000010000004A7
:10133000402F000800030524402F000C060305245D
:10134000402F00108000001B402F00148200001B63
:10135000402F00188400001B402F001C8600001B3B
:10136000402F002090000021402F0024A0000019F1
:10137000402F0028A8000017402F002CA900001BB8
:10138000402F003000000021402F0004000079A809
:10139000402F004000000F31402F004400652922FB
:1013A000402F004800010920402F004C50210A081E
:1013B000402F008000000021402F00840088888892
:1013C000402F009400000002402F00980000000011
:1013D000402F009080000000402F009CA55A000F75
:1013E000CF000C1C402F003C00000001CC00140476
:1013F000402F009080000000402F009CA55A000C58
:10140000CF000C1C402F003C00000001CC00140455
:10141000402F009080000000402F009CA55A000C37
:10142000CF000C1C402F003C00000001CC001C042D
:10143000402F00A000000033402F009080000000EB
:10144000402F009CA55A000ACF000C1C402F003CE6
:1014500000000001CC000C04402F004C50210A0970
:0200000470008A
:10200000EC20002015240070496F0080E10400805E
:10201000E10400803919008099A6008000000000CA
:10202000000000000000000000000000F18C0080B3
:10203000F13C0080000000002F040080999A00808D
:1020400073240070772400707B2400707F2400705C
:1020500083240070872400708B2400708F2400700C
:1020600093240070972400709B2400709F240070BC
:10207000A3240070A7240070AB240070AF2400706C
:10208000B324007043250070432500704325007081
:10209000B7240070BB240070BF240070C3240070FC
:1020A000C7240070CB240070CF240070D3240070AC
:1020B000D7240070DB240070DF240070E32400705C
:1020C000E7240070EB240070EF240070F32400700C
:1020D000F7240070FB240070432500704325007036
:1020E000432500704325007043250070712C00804B
:1020F0004325007043250070432500704325007080
:10210000432500704325007043250070432500706F
:10211000432500704325007043250070432500705F
:10212000FF24007003250070072500700B25007048
:102130000F25007043250070432500704325007073
:10214000432500704325007043250070432500702F
:10215000432500704325007043250070432500701F
:10216000432500704325007043250070432500700F
:1021700043250070432500704325007043250070FF
:10218000432500704325007019430080814300807F
:10219000B94300804325007043250070432500703B
:1021A000432500704325007013250070172500702B
:1021B00043250070432500704325007043250070BF
:1021C00043250070432500704325007043250070AF
:1021D000432500704325007043250070432500709F
:1021E0004325007043250070432500701B250070B7
:1021F0001F250070432500702325007027250070DF
:1022000031A6008019A600802B2500707140008047
:10221000432500704325007043250070432500705E
:1022200043250070432500707170008043250070C5
:10223000432500704325007043250070432500703E
:10224000432500704325007043250070432500702E
:10225000432500704325007043250070432500701E
:10226000432500704325007043250070432500700E
:1022700043250070432500704325007043250070FE
:1022800043250070432500704325007043250070EE
:1022900043250070432500704325007043250070DE
:1022A00033250070372500703B25007043250070F2
:1022B0003F250070432500704325007043250070C2
:1022C00043250070432500704325007043250070AE
:1022D000432500704325007043250070432500709E
:1022E000432500704325007043250070432500708E
:1022F000432500704325007043250070432500707E
:10230000432500704325007043250070432500706D
:10231000432500704325007043250070432500705D
:10232000432500704325007043250070432500704D
:10233000432500704325007043250070432500703D
:10234000432500704325007043250070432500702D
:10235000432500704325007043250070432500701D
:10236000432500704325007043250070432500700D
:1023700043250070432500704325007043250070FD
:1023800043250070432500704325007043250070ED
:1023900043250070432500704325007043250070DD
:1023A00043250070432500704325007043250070CD
:1023B00043250070432500704325007043250070BD
:1023C00043250070432500704325007043250070AD
:1023D000432500704325007043250070432500709D
:1023E000432500704325007043250070432500708D
:1023F000432500704325007043250070FFFFFFFF59
:10240000DFF80CD000F018F900480047890C008074
:10241000EC2000204C484AF6AF21CAF6AA21016000
:102420004A48016841F00401016049480168C0F26E
:1024300000014FF007024FF00A034FEA02424FEA51
:10244000035342EA0301016072B642484249016007
:102450000A6882F308884148804762B640480047CE
:10246000FEE7FEE7FEE7FEE7FEE7FEE7FEE7FEE744
:10247000FEE73C4800473C4800473C4800473C4892
:1024800000473C4800473C4800473C4800473C4820
:1024900000473C4800473C4800473C4800473C4810
:1024A00000473C4800473C4800473C4800473C4800
:1024B00000473C4800473C4800473C4800473C48F0
:1024C00000473C4800473C4800473C4800473C48E0
:1024D00000473C4800473C4800473C4800473C48D0
:1024E00000473C4800473C4800473C4800473C48C0
:1024F00000473C4800473C4800473C4800473C48B0
:1025000000473C4800473C4800473C4800473C489F
:1025100000473C4800473C4800473C4800473C488F
:1025200000473C4800473C4800473C4800473C487F
:1025300000473C4800473C4800473C4800473C486F
:1025400000473C480047000044C00A4040C00A40E1
:1025500038C00A4008ED00E00020007061260070DD
:10256000012400704135008071370080C137008040
:102570001138008061380080B13800800139008056
:1025800051390080A1390080F139008091350080F7
:10259000E13500803136008081360080D136008000
:1025A0002137008043250070195E0080495E00805D
:1025B000795E0080A95E0080D15E0080015F0080AE
:1025C000315F0080615F0080C14C0080D14C008091
:1025D000E94C0080014D0080994D0080E14D008064
:1025E000294E0080714E00804119008089190080B9
:1025F00069890080F9890080898A0080D98A0080F1
:10260000798C00802942008031420080432500708F
:102610004325007049A6008071A6008059410080C2
:10262000432500706140008043250070D919008067
:102630003942008043250070064C074D06E0E068F3
:1026400040F0010394E8070098471034AC42F6D3F9
:10265000FFF7DAFED02800700029007000000000AB
:1026600080B588B04EF68851CEF20001086840F47B
:10267000700008604FF4806002904FF000400490BA
:1026800042F20000C7F20000039002988008019017
:10269000FFE70198411E019140B1FFE70398019ABD
:1026A00050F82200049941F82200F2E704984EF60F
:1026B0000851CEF20001086048F20801C4F20B0193
:1026C000088820F0010008800821C4F20D01088864
:1026D00020F00100088048F20000C4F20B000088DE
:1026E0004007002809D5FFE748F20001C4F20B01BA
:1026F000088820F004000880FFE70020C4F20D00E5
:1027000000884007002808D5FFE70021C4F20D012A
:10271000088820F004000880FFE74CF20000C4F2B3
:102720000B000068800400280AD5FFE74CF2040182
:10273000C4F20B014CF22050CDF6281008600AE0DC
:102740004CF20401C4F20B014CF2205008604DF62B
:1027500028100860FFE74CF20801C4F20B014FF6A5
:10276000FF7008604CF20001C4F20B01086840F0F1
:10277000200020F0800008604EF21000CEF2000031
:102780000068C00748B1FFE74EF21001CEF2000129
:10279000086820F001000860FFE74EF61450CEF202
:1027A0000000006800F40030B0F5003F26D0FFE7DD
:1027B0004EF61450CEF2000000688003002801D5C8
:1027C000FFE71AE0BFF34F8FBFF36F8F4EF65071E4
:1027D000CEF2000100200860BFF34F8FBFF36F8F70
:1027E0004EF61451CEF20001086840F40030086043
:1027F000BFF34F8FBFF36F8FFFE7FFE74EF6145025
:10280000CEF20000006800F48030B0F5803F48D080
:10281000FFE74EF61450CEF200000068C003002817
:1028200001D5FFE73CE04EF68451CEF200010020D6
:102830000860BFF34F8F4EF68050CEF20000006864
:1028400007900798C0F34E300690FFE70798C0F353
:10285000C9000590FFE706990598800761F34D10C0
:102860004EF66071CEF2000108600598411E059198
:102870000028F0D1FFE70698411E06910028E5D117
:10288000FFE7BFF34F8F4EF61451CEF200010868F8
:1028900040F480300860BFF34F8FBFF36F8FFFE7C6
:1028A000FFE700F005F808B080BD00000000000060
:1028B000704702E008C8121F08C1002AFAD1704709
:1028C0007047002001E001C1121F002AFBD17047B0
:1028D000002900700004008088500200B2280070B7
:1028E0008879027000000020880100002C0C008014
:1028F0006C7A027088010020640B0000C22800700E
:10290000EFF3108072B6704780F310887047424A28
:102910001368012B04D04FF0010313603F4A10608D
:102920003F4A11603F484FF0805101607047EFF31C
:10293000108272B63848016851B34FF0000101604F
:102940003648016891B1EFF309811EF0100F08BFFE
:1029500021ED108B21E9F00F4FF000041EF0100F55
:1029600008BF012441F8044D006801602C49096842
:10297000096808C9B1E8F00F002B18BFB1EC108B43
:1029800081F309884EF0100E002B18BF2EF0100EA8
:1029900082F310884EF0040E704721490860EFF36F
:1029A000148222F0040282F314881C494FF00000C4
:1029B000086019494FF0010008601B481B49D0F816
:1029C000002041EA0201016016484FF08051016089
:1029D00017480068006880F3088861B662B67047DF
:1029E0001EF0040F0CBFEFF30880EFF3098020E91D
:1029F000F00F40F804ED40F804ED1EF0040F0CBF9A
:102A000080F3088880F3098800B51AF0D9FE5DF8D4
:102A100004EB4EF0040E7047600900209C06002075
:102A2000A806002004ED00E020ED00E00000FFFF1C
:102A300008ED00E02DE9F05F0546002092469B4638
:102A400088460646814640241BE0284641464746C4
:102A5000224600F01DF953465A46C01A914110D340
:102A600011461846224600F004F92D1A67EB0108BA
:102A70004F4622460120002100F0FBF817EB000929
:102A80004E41201EA4F10104DFDC484631462A46AF
:102A90004346BDE8F09F2DE9F0410024061B254682
:102AA00071F1000605DA01240027D0EB070067EB7F
:102AB0000101161E73F1000605DA0027D2EB0702AA
:102AC000012567EB0303FFF7B5FF86460E46174661
:102AD0009C46AC4204D00025D0EB050E65EB010608
:102AE00024B10020D2EB000760EB030C70463146A6
:102AF0003A466346BDE8F081002800DA404270475C
:102B000010B540EA01040346A40703D009E010C948
:102B1000121F10C3042AFAD203E011F8014B03F884
:102B2000014B521EF9D210BDD2B201E000F8012BC8
:102B3000491EFBD270470022F6E710B513460A463D
:102B400004461946FFF7F0FF204610BD421E12F85A
:102B5000013F002BFBD111F8013B02F8013B002B98
:102B6000F9D1704710B5044604E00B7800F8013B3A
:102B700003B1491C521EF8D2204610BD421C10F869
:102B8000011B0029FBD1801A704730B50446002094
:102B9000034600E05B1C934203D2E05CCD5C401B2B
:102BA000F8D030BD034611F8012B00F8012B002AA4
:102BB000F9D11846704730B505460020034600E0BD
:102BC0005B1C934205D2EC5CC85C201A01D1002C3E
:102BD000F6D130BD3EB5CA17CB0F0024504051404E
:102BE000C0186141DA0740F233430094CDE9012374
:102BF0002246234600F06BF803B030BD70B5C1F338
:102C00000A5201F000450024C1F3130140F2FF33E2
:102C100041F480119A4202DA0020014670BD40F270
:102C200033439A42A2F2334203DC524200F030F8BE
:102C300001E000F01EF82C43F0D00023D0EB03009D
:102C400063EB010170BD30B50B4601460020202228
:102C5000012409E021FA02F59D4205D303FA02F5A9
:102C6000491B04FA02F52844151EA2F10102F1DC09
:102C700030BD202A04DB203A00FA02F10020704720
:102C80009140C2F1200320FA03F3194390407047AA
:102C9000202A04DB203A21FA02F00021704721FAB1
:102CA00002F3D040C2F12002914008431946704718
:102CB00010B5141E73F1000408DA401C41F1000144
:102CC00092185B411A4301D120F0010010BD2DE99B
:102CD000F04D92469B4611B1B1FA81F202E0B0FA92
:102CE00080F220329046FFF7C4FF04460F4640EAC8
:102CF0000A0041EA0B0153465A46084313D01146D5
:102D000053EA010019D0C8F140025046FFF7C0FF56
:102D100005460E46504659464246FFF7AAFF08436D
:102D200005D0012004E020463946BDE8F08D0020A2
:102D3000054346EAE0762C4337430A986305E40AE4
:102D4000A0EB08000022FD0A44EA47540A3002D5ED
:102D500000200146E9E7010510196941DDE9084550
:102D600000196941BDE8F04DA2E72DE9FE4F80460C
:102D700081EA0300C00F0C46009021F0004123F0CF
:102D80000045B8EB0200A94105D2404621469046D5
:102D90001C460B46024623F00040104347D0270D47
:102DA000C7F30A00C3F30A510290401A0190402869
:102DB0006BDAC3F3130040F4801B0098924620B1F5
:102DC0000023D2EB030A63EB0B0B01985946C0F1C9
:102DD00040025046FFF74DFF06460D465046594605
:102DE000019A00F091F910EB08006141002487EA94
:102DF000115284EAE7731A4340D0009A62B3019AF1
:102E0000012A4FEA075215DC001B61EB02014FF06B
:102E1000004202EA0752CDE90042001C41F5801150
:102E200032462B46FFF753FF03B0BDE8F08F404614
:102E30002146F9E7001B61EB0201001C41F58013FC
:102E400000185B412018A2F5001747EB030140EA88
:102E5000D570B6196D4111E06D084FEA360645EAA6
:102E6000C0754FEA0752001B61EB0201001C41F5DF
:102E7000801149084FEA30000019514132462B4673
:102E800003B0BDE8F04FFFF713BF009801224000E8
:102E90000023D0EB020263EBE073009821464FEA77
:102EA000E074B8EB000061EB0401E9E783F0004354
:102EB0005BE781F0004158E72DE9FE4F81EA03040A
:102EC00004F0004421F0004100944FF0000B23F087
:102ED000004350EA01045ED052EA03045BD0C3F31E
:102EE0000A54C1F30A552C44A4F2F3340194A0FB14
:102EF0000254C1F3130141F48011C3F3130343F4EB
:102F0000801301FB024400FB034E840A970A44EA43
:102F1000815447EA8357A4FB076802958D0A05FB95
:102F200007854FEA932C04FB0C542705029D4FEABA
:102F3000065847EA1637B5EB08056EEB070C870E07
:102F4000920E47EA811742EA8312A7FB0201B6EB11
:102F50000B0164EB00042B0D43EA0C335E1844EBC9
:102F60001C50DA465146E7FB0201C5F313044FEA51
:102F70000B3343EA14534FEA0432019C43EA06033D
:102F8000A4F10C040294009CCDE900B4FFF79FFE6D
:102F900003B0BDE8F08F00200146F9E72DE9F04DC0
:102FA00081EA030404F0004B21F0004514464FF081
:102FB000000A23F0004150EA050220D054EA010241
:102FC0001DD0C5F30A570246C5F31303C1F313001E
:102FD000C1F30A5640F4801543F48013A7EB0608AA
:102FE000101BD64608F2FD3873EB050002D308F13A
:102FF000010801E092185B41B8F1000F03DA0020EC
:103000000146BDE8F08D00204FF48011064684464D
:103010000EE0171B73EB050705D3121B63EB0503CB
:1030200006434CEA010C49084FEA300092185B4114
:1030300050EA0107EDD152EA030012D082EA0400FF
:1030400083EA0501084305D0101BAB4106D20122DB
:10305000002306E000224FF0004302E06FF001027F
:1030600053101AEB06004CEB085110EB0A0041EB31
:103070000B01BDE8F04DFFF71BBE70B521F000431A
:1030800003430CD0C1F30A550024D5EB040564EBCF
:103090000403D617AD1AB34102DB0020014670BD10
:1030A000201841EB025170BDC1F30A52C1F3130164
:1030B00040F2FF3341F480119A4202DA00200146C7
:1030C000704740F233439A42A2F2334202DC52424A
:1030D000FFF7DEBDFFF7CDBD30B5041E71F1000472
:1030E00004DB4FF00044404264EB0101141E73F115
:1030F000000405DB1C464FF00043524263EB04031F
:10310000994208BF904230BD202A06DBCB17203AF7
:1031100041FA02F043EAE07306E041FA02F3D040DC
:10312000C2F12002914008431946704770B58C18CF
:1031300010F8015B15F0070301D110F8013B2A11CB
:1031400006D110F8012B03E010F8016B01F8016BB8
:103150005B1EF9D12B0705D40023521E0DD401F8B4
:10316000013BFAE710F8013BCB1A921C03E013F87D
:10317000015B01F8015B521EF9D5A142D8D30020B2
:1031800070BD00000000000080B51DF0D5FC0020DF
:1031900080BD000000000000BFF35F8F4EF6245199
:1031A000CEF20001086820F4803008604EF6945199
:1031B000CEF20001086820F00100086070470000AE
:1031C00081B00090009840F001004EF69451CEF28C
:1031D000000108604EF62451CEF20001086840F468
:1031E00080300860BFF34F8FBFF36F8F01B070471F
:1031F00080B506F02DF903F087FF06F0FDF880BDDD
:1032000080B584B003908DED020ACDED010A9DEDED
:10321000010A9DED021A30EE410ABDEEC00A10EE21
:10322000100A0399888103998A89488A1044488240
:103230000398B0F912004FF4E1614FF6F802CFF6AF
:10324000FF7215F061FF0399488203998889CA8942
:10325000801A88820399B1F90C0000EE100AB8EECA
:10326000C02A91ED001A91ED010AB1F9120003EEA6
:10327000100AB8EEC33A20EE030A01EE020ABDEED0
:10328000C00A10EE100A488303998889C881039800
:10329000B0F91A0004B080BD82B00190ADF8021000
:1032A000ADF80020BDF80000BDF80210401A0199E9
:1032B000888101998889CA89801A88820199B1F91F
:1032C0000C0000EE100AB8EEC02A91ED001A91ED44
:1032D000020AB1F9140003EE100AB8EEC33A20EE68
:1032E000030A01EE020ABDEEC00A10EE100A48837E
:1032F00001998889C8810198B0F91A0002B0704715
:1033000082B00190ADF80210ADF80020BDF80000C9
:10331000BDF80210401A0199888101998A89488A6A
:103320001044488201998889CA89801A8882019943
:10333000B1F90C0000EE100AB8EEC03AB1F9120073
:1033400000EE100AB8EEC04A91ED002A91ED010A94
:1033500091ED021A20EE040A02EE030AB1F91400FC
:1033600002EE100AB8EEC22A01EE020ABDEEC00A51
:1033700010EE100A488301998889C8810198B0F934
:103380001A0002B07047000080B582B040F2901081
:10339000C2F20000006898B9FFE740F29421C2F23F
:1033A00000010020086040F29021C2F20001086094
:1033B00040F29011C2F20001086801300860FFE796
:1033C00040F2D030C2F20000B0F90000A028C0F2F4
:1033D0009080FFE740F2D030C2F20000B0F9000068
:1033E000AA2800F38680FFE740F2D030C2F2000046
:1033F000B0F90200A0287CDBFFE740F2D030C2F237
:103400000000B0F90200AA2873DCFFE740F2901137
:10341000C2F200010020086040F29821C2F20001CF
:10342000088040F29A21C2F20001088018F00CFED8
:1034300040F62440C2F20000017940F27A60C2F204
:10344000000001700078052825D0FFE72920012120
:1034500000910CF0D9FB00992A200CF0D5FBB92083
:10346000019040F20E6118F05BFF40F2DC501CF05E
:103470003FFB019840F6980118F052FF40F294216A
:10348000C2F200010020086040F2F831C2F20001EF
:10349000022008702CE040F29421C2F200010020CA
:1034A000086040F27862C2F20002117801311170B6
:1034B00040F26861C2F20001096840F29802C2F26B
:1034C0000002116040F26C61C2F20001096840F232
:1034D0009C02C2F20002116040F28412C2F20002A9
:1034E0000121118040F2F831C2F200010870FFE7BB
:1034F000FFE702B080BD000080B58AB04FF4004005
:1035000001F0F2FD48F2C021C4F20D01086840F458
:1035100080300860086820F40030086043F20060E2
:10352000C0F26E1001F0ECFD002001F029FC01F06A
:103530006BFC0120099001F0EFFD09994CF20002AB
:10354000C4F20F0210687F2363F30700106046F691
:103550001840C8F2000001F017FD099943F6141055
:10356000C1F2004001F010FD0C21C4F2080108680E
:10357000132262F304000860FFE70020C4F2080091
:10358000006800F00040B0F1004F01D0FFE7F4E721
:1035900042F20820C8F2020001F0BEFB00F04CFE2F
:1035A00048F20000C4F20D0002900D21C0F270013B
:1035B0000122079201F078FD48F27011C4F20D016A
:1035C0000191086820F400400860086820F40000B9
:1035D000086048F27001C4F20D01086840F4005020
:1035E000086000F041FE019A48F2A001C4F20D010A
:1035F000086840F480300860106820F04040106097
:10360000086840F40050086000F01EFE0298079A17
:103610000D21C0F2E00101F047FD079A48F2E001F8
:10362000C4F20D01086862F301000860086840F404
:1036300000500860086820F00C000860086840F43A
:1036400080100860086840F40010086000F004FE74
:103650000298079A0D21C0F2200101F025FD48F2E1
:103660002001C4F20D01086840F4005008604EF6D5
:103670001420C0F200400021069101F0F5FB4FF448
:10368000887000F0F9FD4FF4847000F0F5FD40F211
:10369000162000F0F1FD4FF4067000F0EDFD46F647
:1036A0001400C8F200000321059101F0DDFB079929
:1036B0004EF21000C4F2000001F0D6FB059947F26B
:1036C0001820C8F2000001F05FFC069943F61410C0
:1036D000C1F2004001F058FC06994FF61430C8F2D0
:1036E000000001F0C1FB069946F61840C8F2000040
:1036F00001F04AFC4FF48A7000F0BEFD4FF48B706D
:1037000000F0BAFD182000F0B7FD1A2000F0B4FD5B
:103710004FF4867000F0B0FD07994EF21C00C8F21D
:10372000070001F0A1FB069942F21C60C8F20000FC
:1037300001F02AFC40F2026000F09EFD07994EF66F
:103740002430C8F2000001F08FFB069943F21C0000
:10375000C8F2000001F018FC40F2046000F08CFD9B
:1037600007994FF22400C8F2000001F07DFB069992
:1037700043F21C10C8F2000001F006FC40F20A609F
:1037800000F07AFD06994FF21C70C8F2000001F0BB
:103790006BFB059947F61C50C8F2000001F0F4FBE2
:1037A00040F2022000F068FD07994EF63C30C8F266
:1037B000000001F059FB069946F63C10C8F20000E3
:1037C00001F0E2FB4FF4807000F056FD4FF4817081
:1037D00000F052FD4FF4827000F04EFD4FF4837004
:1037E00000F04AFD4FF61820C8F20000042101F055
:1037F0003BFB46F21840C8F200000221039101F0A1
:10380000C3FB162000F038FD039947F62410C8F2D8
:10381000000001F029FB039946F61860C8F2000089
:1038200001F0B2FB40F2125000F026FD05994EF275
:103830002860C8F2000001F017FB07994EF228003B
:10384000C8F2070001F010FB069946F61C20C8F2EA
:10385000000001F099FB40F2145000F00DFD0599B5
:103860004EF22C60C8F2000001F0FEFA07994EF209
:103870002C00C8F2070001F0F7FA069946F61C4042
:10388000C8F2000001F080FB40F2165000F0F4FC9A
:1038900005994FF22860C8F2000001F0E5FA079997
:1038A0004FF22800C8F2070001F0DEFA069946F64A
:1038B0001C60C8F2000001F067FB40F2062000F037
:1038C000DBFC4FF4027000F0D7FC40F20A2000F05D
:1038D000D3FC06994FF23830C8F2070001F0C4FA61
:1038E000069943F23820C8F2000001F04DFB0E208B
:1038F00000F0C2FC1220089000F0BEFC40F20670FE
:1039000000F0BAFC102000F0B7FC142000F0B4FC6A
:103910004FF4E16000F0B0FC07994EF22020C8F2AD
:10392000070001F0A1FA039946F62000C8F2000052
:1039300001F02AFB4FF4A36000F09EFC1C2000F075
:103940009BFC0C2000F098FC4FF48C7000F094FC71
:1039500040F2023000F090FC40F2063000F08CFCA7
:1039600040F21A5000F088FC40F20E6000F084FC37
:1039700006994EF22400C8F2070001F075FA069984
:1039800042F22460C8F2000001F0FEFA40F20A3070
:1039900000F072FC07994EF63840C8F2000001F0C2
:1039A00063FA05994FF21870C8F2000001F05CFA52
:1039B0004EF63870C8F20000052101F0E5FA40F239
:1039C0000E5000F059FC07994FF63010C8F2000075
:1039D00001F04AFA4FF23060C8F20000072104916A
:1039E00001F042FA059947F23040C8F2000001F0B8
:1039F000CBFA40F2025000F03FFC07994EF63040FF
:103A0000C8F2000001F030FA04994EF63010C8F206
:103A1000000001F029FA059946F23070C8F2000062
:103A200001F0B2FA4FF4407000F026FC07994EF610
:103A30002810C8F2000001F017FA07994FF6281075
:103A4000C8F2000001F010FA059947F22030C8F2E0
:103A5000000001F099FA069942F20C00C8F2000049
:103A600001F092FA079B089A48F26011C4F20D0126
:103A7000086820F01F0008604CF26001C4F20F01DA
:103A8000086820F070000860086863F303000860AD
:103A9000086820F460000860086862F31440086059
:103AA000086820F480700860086820F080000860D2
:103AB000086820F08070086040F27001C2F20001D6
:103AC00044F20060C2F2C33008600AB080BD00005A
:103AD00080B588B04EF61450CEF200000068800326
:103AE000002817D5FFE7BFF34F8FBFF36F8F4EF658
:103AF0001451CEF20001086820F4003008604EF640
:103B00005071CEF2000100200860BFF34F8FBFF369
:103B10006F8FFFE74EF61450CEF200000068C0032E
:103B200000283DD5FFE74EF68451CEF2000100207B
:103B30000860BFF34F8F4EF61451CEF200010868B3
:103B400020F480300860BFF34F8F4EF68050CEF2E5
:103B50000000006807900798C0F34E300690FFE71A
:103B60000798C0F3C9000590FFE7069905988007FC
:103B700061F34D104EF67471CEF2000108600598A5
:103B8000411E05910028F0D1FFE70698411E0691DD
:103B90000028E5D1FFE7BFF34F8FBFF36F8FFFE73B
:103BA000FFF7FAFA4EF69C52CEF200020092102075
:103BB000CCF2000010604EF6A051CEF2000101914F
:103BC0003920C0F2103008601120C8F200001060E7
:103BD0003B20C0F2103008601223C7F200031360CC
:103BE0002B23C0F203630B601323136008601420BF
:103BF00010601F20C0F2033008601520C2F20000E0
:103C000010602520C0F2033008601623C2F22003A2
:103C1000136008601720C2F2280010600920C0F26B
:103C2000033008601820C8F2000010603120C0F294
:103C3000033008601920C8F2E01010602920C0F29B
:103C4000083008600420FFF7BBFA4EF61450CEF29D
:103C500000000068C003002801D5FFE73CE04EF6F5
:103C60008451CEF2000100200860BFF34F8F4EF662
:103C70008050CEF20000006804900498C0F34E30EB
:103C80000390FFE70498C0F3C9000290FFE703998F
:103C90000298800761F34D104EF66071CEF200017C
:103CA00008600298411E02910028F0D1FFE70398B6
:103CB000411E03910028E5D1FFE7BFF34F8F4EF679
:103CC0001451CEF20001086840F480300860BFF360
:103CD0004F8FBFF36F8FFFE74EF61450CEF2000008
:103CE00000688003002801D5FFE71AE0BFF34F8F7B
:103CF000BFF36F8F4EF65071CEF2000100200860C6
:103D0000BFF34F8FBFF36F8F4EF61451CEF2000109
:103D1000086840F400300860BFF34F8FBFF36F8F27
:103D2000FFE708B080BD000080B584B042F2246097
:103D3000C8F2000000F0ECFBD0B9FFE70D20C0F2A4
:103D4000100000F0FDFC4AF6AB21CAF6AA21A0FB48
:103D50000110800802904EF22400C8F2070000F023
:103D600013FB014602980131B0FBF1F003900FE024
:103D700000F0E2FB01904EF22400C8F2070000F0D0
:103D800003FB014601980131B0FBF1F00390FFE71E
:103D9000039804B080BD000080B582B0FFF7C4FF77
:103DA0000190019B4FF4E1310122104602F0C8F866
:103DB00002B080BD0000000040F29C00C2F2000092
:103DC000006840F2D021C2F20001086040F2942164
:103DD000C2F2000100200860FFE740F29420C2F226
:103DE000000090ED000A40F2D020C2F2000090EDF9
:103DF000001AB4EE410AF1EE10FA08DAFFE740F2D9
:103E00009A21C2F200014FF6EC700880E5E740F21B
:103E10009821C2F200010020088040F29A21C2F2EB
:103E20000001088040F29421C2F200010860FFE71F
:103E3000FEE7000000000000FFE7FEE700000000D2
:103E400080B540F66820C2F20000406808B1FFE784
:103E50000BE043F28560C8F2020043F2D661C8F27B
:103E6000020140F6495208F01BFF40F66820C2F2FA
:103E70000000416840F24410C2F2000002680020D5
:103E8000C4F21D00904780BD80B540F66820C2F2A4
:103E90000000806808B1FFE70BE043F2A060C8F2C1
:103EA000020043F2D661C8F2020140F6575208F010
:103EB000F7FE40F66820C2F20000816840F244102C
:103EC000C2F20000026844F20000C4F21D009047F4
:103ED00080BD00000000000080B540F66820C2F2FE
:103EE0000000C06808B1FFE70BE043F2BB60C8F216
:103EF000020043F2D661C8F2020140F6655208F0B2
:103F0000CFFE40F66820C2F20000C16840F24410C3
:103F1000C2F20000026848F20000C4F21D0090479F
:103F200080BD00000000000084B0ADF80E008DF8E8
:103F30000D10BDF90E00000A0290BDF80E0000F051
:103F40001F0001900298072801D8FFE70BE043F219
:103F50009C30C8F2020043F2C731C8F2020140F2BD
:103F60002D4208F09DFE02994CF26800C4F20F0049
:103F700000EB8100009000980068019A03219140B5
:103F800088439DF80D10914008430099086004B0E3
:103F9000704700000000000084B0ADF80E008DF8FE
:103FA0000D10BDF90E00000A0290BDF80E0000F0E1
:103FB0001F0001900298072801D8FFE70BE043F2A9
:103FC0009C30C8F2020043F2C731C8F2020140F24D
:103FD0002D4208F065FE02994CF26800C4F20F0011
:103FE00000EB8100009000980068019A0321914045
:103FF00088439DF80D10914008430099086004B073
:10400000704700000000000084B0ADF80E008DF88D
:104010000D10BDF90E00000A0290BDF80E0000F070
:104020001F0001900298072801D8FFE70BE043F238
:104030009C30C8F2020043F2C731C8F2020140F2DC
:104040002D4208F02DFE02994CF26800C4F20F00D8
:1040500000EB8100009000980068019A03219140D4
:1040600088439DF80D10914008430099086004B002
:10407000704700000000000084B0ADF80E008DF81D
:104080000D10BDF90E00000A0290BDF80E0000F000
:104090001F0001900298072801D8FFE70BE043F2C8
:1040A0009C30C8F2020043F2C731C8F2020140F26C
:1040B0002D4208F0F5FD02994CF26800C4F20F00A1
:1040C00000EB8100009000980068019A0321914064
:1040D00088439DF80D10914008430099086004B092
:1040E000704700000000000084B0ADF80E008DF8AD
:1040F0000D10BDF90E00000A0290BDF80E0000F090
:104100001F0001900298072801D8FFE70BE043F257
:104110009C30C8F2020043F2C731C8F2020140F2FB
:104120002D4208F0BDFD02994CF26800C4F20F0068
:1041300000EB8100009000980068019A03219140F3
:1041400088439DF80D10914008430099086004B021
:10415000704700000000000084B0ADF80E008DF83C
:104160000D10BDF90E00000A0290BDF80E0000F01F
:104170001F0001900298072801D8FFE70BE043F2E7
:104180009C30C8F2020043F2C731C8F2020140F28B
:104190002D4208F085FD02994CF26800C4F20F0030
:1041A00000EB8100009000980068019A0321914083
:1041B00088439DF80D10914008430099086004B0B1
:1041C000704700000000000084B0ADF80E008DF8CC
:1041D0000D10BDF90E00000A0290BDF80E0000F0AF
:1041E0001F0001900298072801D8FFE70BE043F277
:1041F0009C30C8F2020043F2C731C8F2020140F21B
:104200002D4208F04DFD02994CF26800C4F20F00F7
:1042100000EB8100009000980068019A0321914012
:1042200088439DF80D10914008430099086004B040
:10423000704700000000000048F27001C4F20D0158
:104240004FF480500860704748F2E001C4F20D015D
:104250004FF480500860704748F22001C4F20D010D
:10426000002008607047000048F2A001C4F20D0170
:104270004FF480500860704780B582B0ADF80600FA
:10428000BDF906000021FFF74FFE02B080BD00001F
:1042900080B582B0ADF80600BDF906000021FFF739
:1042A000EBFE02B080BD000080B582B0ADF8060024
:1042B000BDF906000021FFF717FF02B080BD000026
:1042C00080B582B0ADF80600BDF906000021FFF709
:1042D00043FF02B080BD000080B582B0ADF806009B
:1042E000BDF906000321FFF757FE02B080BD0000B4
:1042F00080B582B0ADF80600BDF906000321FFF7D6
:1043000083FE02B080BD000080B582B0ADF806002B
:10431000BDF906000321FFF7AFFE02B080BD00002B
:1043200080B582B0ADF80600BDF906000321FFF7A5
:10433000DBFE02B080BD000080B582B0ADF80600A3
:10434000BDF906000321FFF707FF02B080BD0000A2
:1043500080B582B0ADF80600BDF906000321FFF775
:1043600033FF02B080BD000080B500F041F94CF28F
:104370001401C4F20F01096801F4E052012101EBBC
:104380009221B0FBF1F080BD81B00090009840F622
:10439000C071C0F2400161F31F2000680099C1F3B1
:1043A0004C32C1F304218A401040C84001B070472C
:1043B00080B584B08DF80F009DF80F000146019183
:1043C000172800F28C800199DFE801F00C0C101422
:1043D000181C20242930353A3F444B52575C616603
:1043E0006D747B82FFF7C0FF02907BE000F0C0FBA2
:1043F000029077E000F07CF8029073E000F0D4F8CF
:1044000002906FE000F0B4F802906BE000F0ACFBBB
:10441000029067E00D2000F093F9029062E00D2019
:10442000C0F2100000F08CF902905BE0002000F078
:1044300023FC029056E0012000F01EFC029051E0A7
:10444000022000F019FC02904CE0032000F014FC64
:10445000029047E00D20C0F2200000F071F90290B8
:1044600040E00D20C0F2300000F06AF9029039E01F
:10447000002000F0B1FB029034E0012000F0ACFB22
:1044800002902FE0022000F0A7FB02902AE0032018
:1044900000F0A2FB029025E00D20C0F2E00000F049
:1044A0004FF902901EE01420C0F2E00000F048F93D
:1044B000029017E01520C0F2E00000F041F90290F0
:1044C00010E00D20C0F2700000F03AF9029009E00F
:1044D0000D20C0F2A00000F033F9029002E00020AD
:1044E0000290FFE7029804B080BD000000000000C9
:1044F00080B5FFF739FF4CF21401C4F20F010968CF
:1045000001F44072012101EB1221B0FBF1F080BDFA
:1045100081B00090009840F6C071C0F2400161F394
:104520001F2000680099C1F34C32C1F304218A4076
:104530001040C84001B0704781B048F27020C4F20A
:104540000D000068C006002806D5FFE743F20060B2
:10455000C0F26E10009006E040F23450C2F200004B
:1045600000680090FFE7009801B07047000000006D
:1045700081B048F27020C4F20D000068C006002827
:1045800006D5FFE743F20060C0F26E10009006E02F
:1045900040F23450C2F2000000680090FFE700983B
:1045A00001B070470000000080B582B04CF21C00E2
:1045B000C4F20F0000684006002804D5FFE7FFF7AB
:1045C000D7FF019003E0FFF793FF0190FFE74CF264
:1045D0001C00C4F20F00006800F03F00411C01986D
:1045E000B0FBF1F00190019802B080BD0000000026
:1045F00080B584B04CF21400C4F20F000068800152
:1046000000283FD5FFE74CF21800C4F20F00006805
:1046100000F440500146029178B1FFE70298B0F5EE
:10462000805F11D0FFE70298B0F5005F10D0FFE780
:104630000298B0F5405F12D012E00D20C0F21000D9
:1046400000F07EF803900EE0FFF792FF03900AE07F
:104650000D20C0F2300000F073F8039003E0FFE794
:1046600000200390FFE74CF21400C4F20F00006832
:1046700000F06051012000EBD1610398B0FBF1F034
:1046800003903DE04CF21800C4F20F00006800F403
:1046900040200146019178B1FFE70198B0F5802FE5
:1046A00011D0FFE70198B0F5002F11D0FFE7019876
:1046B000B0F5402F11D01FE00D20C0F2300000F007
:1046C0003FF803901BE0022000F086FA039016E00A
:1046D000002000F081FA039011E00D2000F030F886
:1046E0004CF21001C4F20F01096801F00701013119
:1046F000B0FBF1F0039002E000200390FFE7FFE73A
:10470000039804B080BD000080B584B0039002918E
:104710000398BDF80A106FF31F31405881B2002092
:10472000B0EB913F04D1FFE7FFF722FF019002E0D9
:1047300000200190FFE7019804B080BD0000000058
:1047400080B590B00E9042F21023C8F202031868B0
:1047500059689A68DB6809930892079106900E9948
:1047600048F20000C4F20D0000F06AFB18B9FFE740
:1047700000200F90F3E10E9948F20000C4F20D0002
:104780000590FFF7C1FF014605980D910E9900F0C5
:1047900047FB18B1FFE70D980F90E0E10E980490E9
:1047A0000D283DD0FFE704980D21C0F2100188428A
:1047B0007DD0FFE704980D21C0F22001884200F06F
:1047C000BA81FFE704980D21C0F23001884233D04E
:1047D000FFE704980D21C0F27001884275D0FFE711
:1047E00004980D21C0F2A001884200F0FB80FFE791
:1047F00004980D21C0F2E001884200F07A81FFE7C1
:1048000004981421C0F2E001884200F08081FFE7A3
:1048100004981521C0F2E001884200F0868198E1F9
:104820000D9848F20001C4F20D01096801F07F0102
:10483000484340080D908FE19DED0D0AB8EE400B06
:1048400048F25000C4F20D0090ED001AB8EE411B82
:1048500020EE010B8DED0A0B48F26000C4F20D0052
:1048600090ED000AB8EE401B9DED0A0B80EE010BA7
:104870008DED0A0B48F23000C4F20D000068C0074D
:1048800028B1FFE70D98162148430D9005E00D98DB
:1048900000EB800080000D90FFE79DED0A0BBCEE61
:1048A000C00B10EE101A0D9808440D9054E10D98AD
:1048B00048F21001C4F20D0109688A071421002A88
:1048C00048BF162148430D9046E148F27000C4F2FB
:1048D0000D00016801F07F010C919DED0D0AB8EE0D
:1048E000400B48F28001C4F20D0191ED001AB8EEC0
:1048F000411B20EE010B8DED0A0B48F29001C4F232
:104900000D0191ED000AB8EE401B9DED0A0B80EE03
:10491000010B8DED0A0B0D990C9A9DED0A0BBCEE67
:10492000C00B10EE103A01FB02310D91006800F44B
:10493000C0100146039150B1FFE70398B0F5002F76
:1049400009D0FFE70398B0F5801F08D008E00D9864
:1049500080080D9010E00D9840080D900CE00BE0E1
:1049600043F2B950C8F2020043F27951C8F2020191
:1049700040F2C53208F094F948F27010C4F20D000C
:10498000006848F20001C0F280010840014602912F
:10499000D0B1FFE70298B0F5004F11D0FFE70298C1
:1049A000B0F5000F10D0FFE7029848F20001C0F206
:1049B0008001884209D1FFE70D9880080D9010E032
:1049C0000D9840080D900CE00BE043F2B950C8F28E
:1049D000020043F27951C8F2020140F2D93208F0E4
:1049E0005FF9B9E048F2A000C4F20D00016801F0DF
:1049F0007F010C919DED0D0AB8EE400B48F2B0011D
:104A0000C4F20D0191ED001AB8EE411B20EE010B2E
:104A10008DED0A0B48F2C001C4F20D0191ED000AC0
:104A2000B8EE401B9DED0A0B80EE010B8DED0A0BDD
:104A30000D990C9A9DED0A0BBCEEC00B10EE103ACE
:104A400001FB02310D91006800F4C0100146019194
:104A500050B1FFE70198B0F5002F09D0FFE70198AA
:104A6000B0F5801F08D008E00D9880080D9010E088
:104A70000D9840080D900CE00BE043F2B950C8F2DD
:104A8000020043F27951C8F2020140F2064208F0F6
:104A900007F948F27010C4F20D00006800F04040C1
:104AA00001460091B0F1004F15D0FFE70098B0F13A
:104AB000404F08D0FFE7009868B1FFE70098B0F1D9
:104AC000804F04D008E00D9880080D9010E00D98FC
:104AD00040080D900CE00BE043F2B950C8F2020020
:104AE00043F27951C8F2020140F21A4208F0D8F8B4
:104AF00032E048F2E000C4F20D00006800F003006C
:104B00000C900C9906A850F821000D9024E048F272
:104B1000E000C4F20D000068C0F381000C900C9915
:104B200006A850F821000D9016E047F64000C0F2AC
:104B30007D100D9010E00D9848F22001C4F20D0197
:104B400009688A071421002A48BF162148430D909E
:104B500002E000200D90FFE70D980F90FFE70F98FF
:104B600010B080BD000000004FF40040704700000E
:104B700080B582B04CF21400C4F20F000068400609
:104B8000002814D5FFE74CF21400C4F20F000068AF
:104B90000006002805D5FFE7012000F06DF8019020
:104BA00004E0022000F018F80190FFE703E0FFF7AF
:104BB0001FFD0190FFE74CF21400C4F20F000068E3
:104BC00000F4E021012000EB11410198B0FBF1F06D
:104BD0000190019802B080BD80B584B08DF80F00BF
:104BE0000D20C0F23000FFF7ABFD02909DF80F00E2
:104BF00001460191032834D80199DFE801F0020E43
:104C00001A2648F20010C4F20D00006800F03F01BF
:104C10000298B0FBF1F0029026E048F20010C4F2D6
:104C20000D000068C0F305210298B0FBF1F002907E
:104C30001AE048F20010C4F20D000068C0F305410C
:104C40000298B0FBF1F002900EE048F20010C4F2BE
:104C50000D000068C0F305610298B0FBF1F002900E
:104C600002E000200290FFE7029800EBC000400045
:104C70000290029804B080BD80B584B08DF80F001A
:104C80000D20C0F21000FFF75BFD02909DF80F00B1
:104C900001460191032834D80199DFE801F0020EA2
:104CA0001A2648F2F000C4F20D00006800F03F013F
:104CB0000298B0FBF1F0029026E048F2F000C4F256
:104CC0000D000068C0F305210298B0FBF1F00290DE
:104CD0001AE048F2F000C4F20D000068C0F305418C
:104CE0000298B0FBF1F002900EE048F2F000C4F23E
:104CF0000D000068C0F305610298B0FBF1F002906E
:104D000002E000200290FFE7029800EBC0004000A4
:104D10000290029804B080BD81B0009048F200017A
:104D2000C4F20D01086820F4E030009A1279920371
:104D300092B2104400F580300860086843F27F02A8
:104D40009043009A126802F07F02104400F5005070
:104D50000860FFE748F20000C4F20D000068C00FD1
:104D600008B9FFE7F6E748F20001C4F20D01086850
:104D700020F48030086001B070470000000000009F
:104D800082B08DF807009DF80700C00708B9FFE75B
:104D90000AE043F2AA50C8F2020043F27951C8F285
:104DA0000201A22207F07CFF48F25811C4F20D0163
:104DB0004FF080400860FFE748F27020C4F20D0019
:104DC0000068C003002801D4FFE7F5E748F254115A
:104DD000C4F20D014FF480300860FFE748F2501034
:104DE000C4F20D0000680004002801D4FFE7F5E7D5
:104DF00048F25811C4F20D014FF48030086002B03F
:104E0000704700000000000048F27021C4F20D015C
:104E1000086840F0010008607047000000000000D2
:104E200082B0019000910198BDF802106FF31F311C
:104E30004058C0F3004002B070470000000000007E
:104E400082B0019000910198BDF802106FF31F31FC
:104E50004058009901F01F01C84000F0010002B065
:104E6000704700000000000080B584B003900291FC
:104E70000398800E0190039840F6C072C0F2400281
:104E800062F31F2000680399C1F34C33C1F3042E71
:104E900003FA0EFC20EA0C00029B03FA0EF303EA6D
:104EA0000C03184362F31F2108600198202801D8E1
:104EB000FFE70BE043F2A930C8F2020043F2C7312A
:104EC000C8F2020140F20B4207F0EAFE01982028E6
:104ED0000DD0FFE7FFE74CF24800C4F20F00006876
:104EE0000199C840C00708B1FFE7F4E7FFE704B045
:104EF00080BD00000000000080B584B003900291E6
:104F00000398800E0190039840F6C072C0F24002F0
:104F100062F31F2000680399C1F34C33C1F3042EE0
:104F200003FA0EFC20EA0C00029B03FA0EF303EADC
:104F30000C03184362F31F2108600198202801D850
:104F4000FFE70BE043F2A930C8F2020043F2C73199
:104F5000C8F2020140F20B4207F0A2FE019820289D
:104F60000DD0FFE7FFE74CF24800C4F20F000068E5
:104F70000199C840C00708B1FFE7F4E7FFE704B0B4
:104F800080BD00000000000080B584B00390029155
:104F90000398800E0190039840F6C072C0F2400260
:104FA00062F31F2000680399C1F34C33C1F3042E50
:104FB00003FA0EFC20EA0C00029B03FA0EF303EA4C
:104FC0000C03184362F31F2108600198202801D8C0
:104FD000FFE70BE043F2A930C8F2020043F2C73109
:104FE000C8F2020140F2E63207F05AFE019820288A
:104FF0000DD0FFE7FFE74CF24800C4F20F00006855
:105000000199C840C00708B1FFE7F4E7FFE704B023
:1050100080BD00000000000080B584B003900291C4
:105020000398800E0190039840F6C072C0F24002CF
:1050300062F31F2000680399C1F34C33C1F3042EBF
:1050400003FA0EFC20EA0C00029B03FA0EF303EABB
:105050000C03184362F31F2108600198202801D82F
:10506000FFE70BE043F2A930C8F2020043F2C73178
:10507000C8F2020140F2E63207F012FE0198202841
:105080000DD0FFE7FFE74CF24800C4F20F000068C4
:105090000199C840C00708B1FFE7F4E7FFE704B093
:1050A00080BD00000000000083B0029001918DF8E7
:1050B00003209DF80300C00750B1FFE70298BDF838
:1050C00006106FF31F3101444FF48030486009E04F
:1050D0000298BDF806106FF31F3101444FF4803081
:1050E0008860FFE703B0704781B00090009840F2FD
:1050F0000451C2F20001086001B0704700000000D6
:1051000081B00090009840F23451C2F20001086072
:1051100001B070470000000081B08DF803009DF8D9
:10512000030038B9FFE748F27421C4F20D011020E2
:10513000086006E048F27821C4F20D0110200860F2
:10514000FFE701B07047000080B540F63820C2F29A
:105150000000026840F63420C2F2000001684CF200
:105160000000C4F22B00904780BD0000000000004A
:1051700080B518F02DFCFFF7E7FFBFF34F8F18F055
:105180005FFC80BD0000000080B588B00790FFE79D
:1051900040F28C20C2F2000000684FF0FF311AF09C
:1051A00033F918F069FA40F20800C2F20000B0F9D1
:1051B000000040F27861C2F20001097888420AD00A
:1051C000FFE705F0A5F840F20801C2F200010888E7
:1051D00001300880FFE740F2F830C2F200000078AA
:1051E0000146069148B1FFE7069801284DD0FFE738
:1051F0000698022800F0FB8047E140F24C40C2F2E2
:10520000000090ED000AB5EE400AF1EE10FA16DA51
:10521000FFE740F6E840C2F2000090ED000A40F2DD
:105220004C40C2F20000D0ED000A00201CF090FEBD
:1052300040F28060C2F2000080ED000A15E040F606
:10524000E840C2F2000090ED000A40F24C40C2F289
:105250000000D0ED000A01201CF07AFE40F28060D0
:10526000C2F2000080ED000AFFE740F29A20C2F28D
:105270000000B0F9001040F24C40C2F2000090ED86
:10528000000A002000F0B8FFFFE040F62441C2F21F
:1052900000014878CA78024440F2D030C2F20000DF
:1052A000028089784180B0F90200002868D0FFE7C9
:1052B00040F2D030C2F20000B0F9000000285FD008
:1052C000FFE740F28421C2F2000108780130087043
:1052D00040F2D030C2F200000290B0F9001040F26B
:1052E0009030C2F20000A4220192FEF709F8019A60
:1052F00001460298494240F2D423C2F200030593CA
:105300001980B0F9021040F2AC30C2F20000FDF793
:10531000F7FF40F2D621C2F200010391088040F667
:10532000E840C2F2000090ED000A40F25430C2F2B0
:105330000000DFED640AFDF763FF014640F2D8206C
:10534000C2F200000490018040F29C21C2F20001F0
:10535000B1F90410B0F9002040F27430C2F200003C
:10536000FDF79AFF0399049A034605981380B0F954
:105370000000B1F90010B2F9002003F045FF35E05C
:1053800040F6E840C2F2000090ED000A40F25430CE
:10539000C2F20000DFED4B0AFDF732FF014640F29A
:1053A000D820C2F200000090018040F29C21C2F29D
:1053B0000001B1F90410B0F9002040F27430C2F2DB
:1053C0000000FDF769FF009A108040F2D420C2F27D
:1053D0000000B0F9000040F2D621C2F20001B1F99C
:1053E0000010B2F9002003F00FFFFFE74DE040F29C
:1053F0008421C2F200010020087040F24C40C2F249
:10540000000090ED000AB5EE400AF1EE10FA16DA4F
:10541000FFE740F6E840C2F2000090ED000A40F2DB
:105420004C40C2F20000D0ED000A00201CF090FDBC
:1054300040F28060C2F2000080ED000A15E040F604
:10544000E840C2F2000090ED000A40F24C40C2F287
:105450000000D0ED000A01201CF07AFD40F28060CF
:10546000C2F2000080ED000AFFE740F29A20C2F28B
:105470000000B0F9001040F24C40C2F2000090ED84
:10548000000A002000F0B8FEFFE740F25040C2F2F0
:105490000000B0F9000040F25441C2F20001B1F93D
:1054A000001040F25242C2F20002B2F9002040F273
:1054B0005643C2F20003B3F900301BF05DFF18F051
:1054C000EFF865E60000000080B58CB035200122C1
:1054D000079247F24803039311460AF055FBB9209F
:1054E0003221049141F20B3216F07EFF039B0799A3
:1054F0002920002209920AF047FB039B0799099A89
:105500002A2006900AF040FB039B079A6E20114662
:105510000AF03AFB039B0799099A6C200AF034FBC6
:10552000039B079A602011460AF02EFB039B079904
:10553000099A62200AF028FB0498099A44F268212B
:10554000059116F051FF0599099A282016F04CFF95
:105550000599099A482016F047FF0599099A702085
:1055600016F042FF0699032008902D2217F018FF2D
:1055700002201821212217F013FF07980C210F2277
:1055800017F00EFF07981221152217F009FF09994D
:1055900043F62A50C8F2020019F0A6FA099A40F21E
:1055A0008821C2F20001086043F61650C8F20200DA
:1055B0000A90114619F028FE0899099A03460A989C
:1055C00040F28C2CC2F2000CCCF800306B465960D3
:1055D0001321196042F68941C8F200014FF480633B
:1055E0001AF012F90B900B9820B1FFE70B981AF004
:1055F0003FFBFFE70CB080BD80B59EB01C901B91B7
:105600001A921993002007901C99069106994A1C3A
:10561000069208701B9890ED000B8DED0C0B9DED24
:105620000C0BB5EE400BF1EE10FA09D1FFE706992D
:105630003020087007980130079007981D9016E1F8
:105640009DED0C0B08A81DF02DFD8DED0A0B002023
:105650001590FFE71598199988420FD2FFE79DED45
:105660001A0AB8EEC01B9DED0A0B20EE010B8DED62
:105670000A0BFFE7159801301590EBE79DED0C0B39
:10568000B5EE400BF1EE10FA28DBFFE79DED0A0BBB
:10569000B6EE001B30EE010B8DED120B9DED120BE3
:1056A0008DED040B9DED190AB8EE401BB2EE040B14
:1056B0001DF05AFDB0EE401B9DED040BB4EE410B06
:1056C000F1EE10FA09DBFFE79DED080BB7EE001BCA
:1056D00030EE010B8DED080BFFE729E09DED0A0B85
:1056E000BEEE001B30EE010B8DED120B9DED120B8B
:1056F0008DED020B9DED190AB8EE401BB2EE040BC6
:105700001DF032FDB0EE401B9DED020BB1EE411BD2
:10571000B4EE410BF1EE10FA09DCFFE79DED080B4A
:10572000BFEE001B30EE010B8DED080BFFE7FFE72E
:1057300000201590FFE71598199988424FD2FFE78E
:105740009DED120B9DED1A1AB8EEC11B80EE010BF8
:105750008DED0E0B9DED120B8DED000B9DED0E0BE7
:1057600051EC100BFDF74AFA03461A9A4FEAE27C15
:10577000A3FB020E03FB0CE301FB0231FDF72AFA47
:105780009DED000B41EC110B30EE410B8DED100B3C
:105790009DED100BBDEEC00B8DED160A1698B0F105
:1057A000FF3F07DCFFE7169814901498C043313090
:1057B000169003E0169830301690FFE79DED0E0B23
:1057C0008DED120B169806994A1C069208700798E0
:1057D00001300790FFE7159801301590ABE7069967
:1057E000481C06902E2008700798013007909DED08
:1057F000080BBDEEC00B8DED180A189848B9FFE7ED
:105800000699481C069030200870079801300790D0
:105810002AE0FFE7189830B3FFE718981A9990FB31
:10582000F1F01790189A17981A9900FB112016900A
:105830001698B0F1FF3F07DCFFE716981490149814
:10584000C0433130169003E0169830301690FFE7D1
:1058500017981890169806994A1C0692087007988F
:1058600001300790D6E7FFE707981D90FFE71D98E6
:105870001EB080BD00000000B0B594B084461898FA
:10588000CDF848C0119110920F938DF83B00002085
:1058900001901299009100994A1C0092087010988A
:1058A00000285FD0FFE71199086849680D910C90B6
:1058B0000C980D99084348B9FFE70099302008700B
:1058C00001980130019001981390B5E0FFE70C9822
:1058D0000D990843002844D0FFE70C980D990F9AC2
:1058E000D317FDF7D8F80B910A900C990D98DDF8B5
:1058F00028E00B9ADDF83CC04FEAEC74AEFB0C35A7
:105900000EFB045E02FB0CE2C91A9041089109905B
:105910000998B0F1FF3F0EDCFFE708980999039161
:10592000029002990398C043C943313140F100000D
:105930000891099007E008990998303140F100007A
:1059400008910990FFE70A980B990D910C909DF82A
:10595000200000994A1C00920870019801300190C3
:10596000B5E766E0119908684968079106900698BE
:105970000799084348B9FFE700993020087001985B
:10598000013001900198139056E0FFE706980799BF
:10599000084300284CD0FFE7069807990F9AD317C1
:1059A000FDF748F80591049006990798DDF810E096
:1059B000059ADDF83CC04FEAEC74AEFB0C350EFBEB
:1059C000045E02FB0CE2C91A904102910390029816
:1059D0000399D0F109004FF00000884108D3FFE798
:1059E00002990398303140F100000291039011E0D8
:1059F000029903989DF83B20D3076122002B18BF22
:105A00004122891840F100000A3960F1000002913A
:105A10000390FFE704980599079106909DF8080008
:105A200000994A1C00920870019801300190ADE77E
:105A3000FFE701981390FFE7139814B0B0BD000082
:105A400080B548F20000C4F20E00002100F090FC86
:105A50004007002808D5FFE740F67C10C2F200009E
:105A6000006800F0C1FCFFE748F20000C4F20E003D
:105A7000102100F07DFC4007002808D5FFE740F624
:105A80007C10C2F20000006C00F0AEFCFFE780BDAD
:105A900080B548F20000C4F20E000A2100F068FC54
:105AA0004007002808D5FFE740F67C10C2F200004E
:105AB000806A00F099FCFFE748F20000C4F20E0093
:105AC0001A2100F055FC4007002808D5FFE740F6F2
:105AD0007C10C2F20000806E00F086FCFFE780BD03
:105AE00080B548F20000C4F20E000B2100F040FC2B
:105AF0004007002808D5FFE740F67C10C2F20000FE
:105B0000C06A00F071FCFFE748F20000C4F20E002A
:105B10001B2100F02DFC4007002808D5FFE740F6C8
:105B20007C10C2F20000C06E00F05EFCFFE780BD9A
:105B300080B548F20000C4F20E000C2100F018FC01
:105B40004007002808D5FFE740F67C10C2F20000AD
:105B5000006B00F049FCFFE748F20000C4F20E00C1
:105B60001C2100F005FC4007002808D5FFE740F69F
:105B70007C10C2F20000006F00F036FCFFE780BD31
:105B800080B548F20000C4F20E000D2100F0F0FBD9
:105B90004007002808D5FFE740F67C10C2F200005D
:105BA000406B00F021FCFFE748F20000C4F20E0059
:105BB0001D2100F0DDFB4007002808D5FFE740F677
:105BC0007C10C2F20000406F00F00EFCFFE780BDC9
:105BD00080B548F20000C4F20E000E2100F0C8FBB0
:105BE0004007002808D5FFE740F67C10C2F200000D
:105BF000806B00F0F9FBFFE748F20000C4F20E00F2
:105C00001E2100F0B5FB4007002808D5FFE740F64D
:105C10007C10C2F20000806F00F0E6FBFFE780BD61
:105C200080B548F20000C4F20E000F2100F0A0FB86
:105C30004007002808D5FFE740F67C10C2F20000BC
:105C4000C06B00F0D1FBFFE748F20000C4F20E0089
:105C50001F2100F08DFB4007002808D5FFE740F624
:105C60007C10C2F20000C06F00F0BEFBFFE780BDF9
:105C700080B548F20000C4F20E00012100F078FB6C
:105C80004007002808D5FFE740F67C10C2F200006C
:105C9000406800F0A9FBFFE748F20000C4F20E00E4
:105CA000112100F065FB4007002808D5FFE740F60A
:105CB0007C10C2F20000406C00F096FBFFE780BD54
:105CC00080B548F20000C4F20E00022100F050FB43
:105CD0004007002808D5FFE740F67C10C2F200001C
:105CE000806800F081FBFFE748F20000C4F20E007C
:105CF000122100F03DFB4007002808D5FFE740F6E1
:105D00007C10C2F20000806C00F06EFBFFE780BDEB
:105D100080B548F20000C4F20E00032100F028FB19
:105D20004007002808D5FFE740F67C10C2F20000CB
:105D3000C06800F059FBFFE748F20000C4F20E0013
:105D4000132100F015FB4007002808D5FFE740F6B7
:105D50007C10C2F20000C06C00F046FBFFE780BD83
:105D600080B548F20000C4F20E00042100F000FBF0
:105D70004007002808D5FFE740F67C10C2F200007B
:105D8000006900F031FBFFE748F20000C4F20E00AA
:105D9000142100F0EDFA4007002808D5FFE740F68F
:105DA0007C10C2F20000006D00F01EFBFFE780BD1A
:105DB00080B548F20000C4F20E00052100F0D8FAC8
:105DC0004007002808D5FFE740F67C10C2F200002B
:105DD000406900F009FBFFE748F20000C4F20E0042
:105DE000152100F0C5FA4007002808D5FFE740F666
:105DF0007C10C2F20000406D00F0F6FAFFE780BDB3
:105E000080B548F20000C4F20E00062100F0B0FA9E
:105E10004007002808D5FFE740F67C10C2F20000DA
:105E2000806900F0E1FAFFE748F20000C4F20E00DA
:105E3000162100F09DFA4007002808D5FFE740F63C
:105E40007C10C2F20000806D00F0CEFAFFE780BD4A
:105E500080B548F20000C4F20E00072100F088FA75
:105E60004007002808D5FFE740F67C10C2F200008A
:105E7000C06900F0B9FAFFE748F20000C4F20E0072
:105E8000172100F075FA4007002808D5FFE740F613
:105E90007C10C2F20000C06D00F0A6FAFFE780BDE2
:105EA00080B548F20000C4F20E00082100F060FA4C
:105EB0004007002808D5FFE740F67C10C2F200003A
:105EC000006A00F091FAFFE748F20000C4F20E0009
:105ED000182100F04DFA4007002808D5FFE740F6EA
:105EE0007C10C2F20000006E00F07EFAFFE780BD79
:105EF00080B548F20000C4F20E00092100F038FA23
:105F00004007002808D5FFE740F67C10C2F20000E9
:105F1000406A00F069FAFFE748F20000C4F20E00A0
:105F2000192100F025FA4007002808D5FFE740F6C0
:105F30007C10C2F20000406E00F056FAFFE780BD10
:105F400080B590B08DF83B000D918DF833200B9308
:105F500043F2215006900B9802900D980390002078
:105F60008DF810008DF811009DF83B008DF812009F
:105F700001208DF813008DF814009DF833008DF882
:105F800024009DF83300012803D1FFE702A80A90FE
:105F90001AE09DF83300022803D1FFE706980F901E
:105FA00071E09DF83300032803D1FFE706980F90B6
:105FB00069E09DF83300042803D1FFE706980F90AD
:105FC00061E006980F905EE040F63C20C2F20000CF
:105FD000019000211C22FCF7B0FD019800610069CE
:105FE00007A905F009F90690069808B9FFE70BE044
:105FF00043F6C250C8F2020043F66351C8F20201F0
:106000004FF43D7206F04CFE40F63C21C2F2000116
:106010000869143105F088F90690069808B9FFE779
:106020000BE043F6C250C8F2020043F66351C8F2D7
:10603000020140F2FE2206F033FE40F63C21C2F29D
:1060400000010869183105F01FF90690069808B993
:10605000FFE70BE043F6C250C8F2020043F663517B
:10606000C8F2020140F2093206F01AFE40F63C2066
:10607000C2F20000006940F20851C2F2000108605B
:1060800000200F90FFE70F9810B080BD00000000C7
:1060900080B586B0059004918DF80F200293002002
:1060A0000190FFE70198029988421EDAFFE7049801
:1060B00000680130802809D3FFE705980499096832
:1060C00000F04AF8049900200860FFE79DF80F00EF
:1060D0000599049A12688854049908680130086088
:1060E000FFE7019801300190DCE706B080BD0000B9
:1060F00083B080B5A7B02B932A92299125900020D8
:106100002390229002A88021FCF715FD40F2085050
:10611000C2F20000006818B9FFE70020269015E0E1
:1061200029A824902598249943F69133C8F20003B6
:1061300002AA019205F054FA01460198239123998D
:1061400000F00AF8229022982690FFE7269827B0C0
:10615000BDE8804003B0704780B586B004900391DD
:1061600043F221500290049808B1FFE70BE043F698
:10617000B750C8F2020043F66351C8F2020140F280
:10618000E91206F08DFD039808B1FFE70BE043F636
:10619000AD50C8F2020043F66351C8F202014FF459
:1061A000F57206F07DFD40F20850C2F20000006872
:1061B00018B9FFE70020059016E00499039A40F60D
:1061C0003C20C2F20000143005F06AF902900298F7
:1061D00018B9FFE70398019003E04FF0FF300190FA
:1061E000FFE701980590FFE7059806B080BD000025
:1061F000FFE7FEE70000000080B586B0ADF81600AE
:10620000ADF814108DED040A40F6E840C2F200002B
:1062100090ED000ABDEEC00A10EE100AFCF76CFC0F
:1062200003909DED040ABDEEC00A10EE100AFCF7C3
:1062300063FC01460398013988421BDBFFE740F607
:10624000E840C2F2000090ED000ABDEEC00A10EE78
:10625000100AFCF751FC02909DED040ABDEEC00A45
:1062600010EE100AFCF748FC014602980131884202
:1062700036DDFFE740F28410C2F20000B0F9000002
:1062800001282DD1FFE740F28060C2F2000090EDBE
:10629000000ADDED040A40F25430C2F20000FCF7BF
:1062A000AFFF014640F2D820C2F200000190018009
:1062B00040F29C21C2F20001B1F90410B0F90020B3
:1062C00040F27430C2F20000FCF7E6FF014601988C
:1062D0000180B0F900200021084602F095FF33E06C
:1062E00040F28411C2F200010020088040F2806078
:1062F000C2F2000090ED000ADDED040A40F25430D5
:10630000C2F20000FCF77CFF014640F2D820C2F246
:1063100000000090018040F29C21C2F20001B1F91E
:106320000410B0F9002040F27430C2F20000FCF713
:10633000B3FF009A1080BDF91600BDF91410B2F930
:10634000002002F061FFFFE706B080BD0000000002
:1063500083B0EFF31080019001980090EFF310806C
:1063600072B60290009803B0704700000000000071
:1063700084B00390029102981F2801D8FFE70BE038
:1063800043F2BF50C8F2020043F20261C8F20201B8
:1063900040F2C52206F084FC002001900398029987
:1063A00000EB411041F21C01405AC1B2019840EA91
:1063B000D11001900398C06A0299C84000F0010111
:1063C000019840EA410001900398406A0299C84050
:1063D00000F00101019840EA81000190019804B0A9
:1063E000704700000000000080B588B00790079853
:1063F00008B1FFE70BE043F2F350C8F2020043F2AA
:106400000261C8F2020140F2215206F049FC0799EC
:10641000087C8968C87707998868097C00EB411077
:1064200041F21C01405AC0B2C0098DF81B00079808
:10643000C06880B9FFE70798006858B1FFE7079880
:10644000D0F800C041689DF81B2002F00102002333
:10645000E047FFE780E007998868097C00EB41107E
:1064600041F21801405805900798C1680598401AF4
:1064700005900598400904909DF81B00C00720B1C5
:10648000FFE704988DF80B0010E0049828B1FFE7AF
:106490009DF810000138019004E00798007D013854
:1064A0000190FFE701988DF80B00FFE79DF80B00C6
:1064B0000799497C884218D1FFE70798C07C8DF87E
:1064C0000A000798007D8DF809009DF90A009DF9E2
:1064D0000910884205D1FFE7079890F9130003904F
:1064E00002E000200390FFE713E09DF80B000799FE
:1064F00091F91110401A03900398B0F1FF3F07DCA7
:10650000FFE7079890F91410039808440390FFE7F9
:10651000FFE79DF80B0007994874039A0799C87C18
:10652000801AC8740798006858B1FFE70798D0F838
:1065300000C04168039B9DF81B2002F00102E04768
:10654000FFE79DF81B00C00728B1FFE70799087C0B
:1065500089680877FFE7FFE708B080BD000000000A
:1065600080B544F20000C4F22D0000F015F880BDA3
:1065700080B540F66020C2F20000026840F6FC10D0
:10658000C2F20000016848F20000C4F22D009047FA
:1065900080BD00000000000080B584B00390039827
:1065A00040680290039800F05FF801909DF80B009E
:1065B00010F00C0F0FD0FFE740F66420C2F200008D
:1065C00002680398019B40F6FC11C2F2000151F8E9
:1065D00023109047FFE79DF80B00800778B1FFE795
:1065E00040F65C20C2F2000002680398019B40F66E
:1065F000FC11C2F2000151F823109047FFE7029806
:1066000010F4C03F0FD0FFE740F66020C2F2000058
:1066100002680398019B40F6FC11C2F2000151F898
:1066200023109047FFE7BDF80A0046F27C010842BC
:106630000FD0FFE740F65820C2F20000026803982E
:10664000019B40F6FC11C2F2000151F82310904763
:10665000FFE704B080BD000080B548F20000C4F23E
:106660002D00FFF799FF80BD82B0019000200090BF
:10667000FFE70098022811D8FFE7009943F2842031
:10668000C8F2020050F821000199884201D1FFE7C9
:1066900004E0FFE7009801300090EAE70098022844
:1066A00001D8FFE70BE043F23260C8F2020043F288
:1066B0005561C8F2020140F2431206F0F1FA009867
:1066C00002B070470000000082B000900098019076
:1066D000019880F3108802B07047000000000000AD
:1066E00082B0009000980190019880F3108802B069
:1066F000704700000000000080B582B0ADF80200D5
:10670000BDF90200803018B9FFE70120019006E0D2
:10671000BDF9020006F044FA00200190FFE701985D
:1067200002B080BD0000000080B500F041F880BDDF
:1067300080B500F03DF880BD80B500F039F880BD2F
:1067400080B582B0019000919DF80000C00758B15B
:10675000FFE7019908680A694B69012199400139ED
:10676000914000F01DF8FFE79DF800008007002829
:106770000BD5FFE7019908680A694B690121994027
:106780000139914000F004F8FFE702B080BD00003D
:1067900082B00190009100980199486102B0704761
:1067A00082B00190009100980199086102B0704791
:1067B00080B582B000208DF80700FFE79DF8070044
:1067C000012827DCFFE79DF8071040F67820C2F289
:1067D000000050F82100B0B1FFE79DF8073040F607
:1067E0008020C2F2000050F8232040F68820C2F238
:1067F000000050F8230040F67821C2F2000151F861
:1068000023109047FFE7FFE79DF8070001308DF860
:106810000700D3E702B080BD80B517F0D9F840F289
:106820000C00C2F20000806800F0CEF8C009C0077A
:1068300060B1FFE740F2E440C2F2000000780328B4
:1068400003D1FFE715F004FBFFE7FFE740F20C0080
:10685000C2F20000806800F0B7F8C009C00760B15C
:10686000FFE740F2E440C2F200000078042803D1C0
:10687000FFE71AF0D5F9FFE7FFE717F0E1F880BD71
:1068800080B517F0A5F840F20C00C2F20000806855
:1068900000F09AF8000CC00750B1FFE740F20C007E
:1068A000C2F2000080684FF4803100F045F8FFE745
:1068B00017F0C6F880BD000080B50020C4F21C00AF
:1068C00000F0D6F9C006002812D5FFE70020C4F278
:1068D0001C00042100F0D0F8B0FA80F0400940F22A
:1068E0000C51C2F20001496A096804F011FCFFE78B
:1068F0000020C4F21C004FF0FF3100F099F9012094
:1069000004F0EAFB80BD000080B582B001900091E8
:106910000198009900F094F902B080BD00000000D9
:1069200080B582B0019000910198009900F090F933
:1069300002B080BD0000000080B582B001900091DF
:106940000198009900F08CF902B080BD00000000B1
:1069500080B582B0019000910198009900F05CF937
:1069600002B080BD0000000082B0019000200090C5
:10697000FFE70098092811D8FFE7009943F290201B
:10698000C8F2020050F821000199884201D1FFE7C6
:1069900004E0FFE7009801300090EAE7009809283A
:1069A00001D8FFE70AE043F20970C8F2020043F29F
:1069B0003671C8F20201392206F072F9009802B06D
:1069C000704700000000000080B582B0019001987F
:1069D00000F056F902B080BD80B584B003900291FA
:1069E00001920398FFF7C0FF00900098052814D883
:1069F000FFE7009943F2B820C8F2020030F9110015
:106A0000013050B1FFE7009943F2B820C8F202000C
:106A100030F91100FDF760FCFFE70299012000FA50
:106A200001F203994869904348610198007848B998
:106A3000FFE70299012000FA01F2039948689043A8
:106A400048600EE003980299019A527800F0B4F879
:106A50000299012000FA01F2039948681043486046
:106A6000FFE703980299019A927800F029F904B09F
:106A700080BD00000000000082B0019000910098ED
:106A80001F2801D8FFE70AE043F22C70C8F2020089
:106A900043F6DA21C8F20201B02206F001F90198AA
:106AA00000680099C84000F0010002B07047000083
:106AB00082B00190009100981F2801D8FFE70AE0FA
:106AC00043F22C70C8F2020043F6DA21C8F2020148
:106AD000CD2206F0E5F8019880680099C84000F0E2
:106AE000010002B07047000086B0059004918DF857
:106AF0000F20049801900499012000FA01F20599F1
:106B0000C8699043C86104980F2804D8FFE7059826
:106B10000C30029006E00598103002900198103871
:106B20000190FFE79DF80F0001380146009104280D
:106B30003CD80099DFE801F0030D1A2731000198D5
:106B40004100032000FA01F20299086890430860AE
:106B50002DE00298006801994A0003219140884382
:106B60000121914008430299086020E002980068E2
:106B700001994A0003219140884302219140084332
:106B80000299086013E001984100032000FA01F225
:106B9000029908681043086009E00499012000FA8E
:106BA00001F20599C8691043C86100E0FFE706B02B
:106BB000704700000000000084B0039002918DF83F
:106BC000072002981F2801D8FFE70AE043F22C7043
:106BD000C8F2020043F23671C8F20201712206F0D7
:106BE0005FF89DF8070048B9FFE70299012000FA15
:106BF00001F2039908689043086008E002990120B7
:106C000000FA01F20399086810430860FFE704B036
:106C1000704700000000000082B0019000910098D1
:106C20000199C1F8880002B0704700000000000020
:106C300082B00190009100980199886102B070477C
:106C400082B00190009100980199886102B070476C
:106C500082B00190009100980199886102B070475C
:106C600082B00190009100980199886102B070474C
:106C700081B000900098806901B07047000000006A
:106C800081B000900098806901B07047000000005A
:106C900082B00190009100980199C1F8840002B07F
:106CA000704700000000000080B582B001900091A4
:106CB00001980099FFF7FCFE02B080BD00000000C3
:106CC00080B584B0039002918DF807200398029953
:106CD0009DF80720FFF708FF04B080BD000000000A
:106CE00080B582B00190009101980099FFF7D0FF24
:106CF00002B080BD0000000082B00090009820B972
:106D0000FFE70020ADF8060004E042F6AF70ADF8F2
:106D10000600FFE7BDF8060002B070470000000063
:106D200080B58AB008900791089808B1FFE70AE09B
:106D300043F6A000C8F2020043F23A51C8F2020141
:106D4000E72205F0ADFF079808B1FFE70AE043F638
:106D5000AF00C8F2020043F23A51C8F20201E82241
:106D600005F09EFF0798007B082801D8FFE70AE09E
:106D700043F2CB40C8F2020043F23A51C8F202019A
:106D8000E92205F08DFF0798017B43F25820C8F2F5
:106D9000020050F8210008B1FFE70AE043F2145066
:106DA000C8F2020043F23A51C8F20201EA2205F0A9
:106DB00077FF01A801F0ECFB079840680190079865
:106DC000007A012804D1FFE702208DF808000DE0C9
:106DD0000798007A022804D1FFE703208DF8080005
:106DE00003E000208DF80800FFE7FFE70798407AEE
:106DF000012804D1FFE701208DF80B0003E00020FB
:106E00008DF80B00FFE70798807A002818BF012053
:106E10008DF815000798C07A002818BF01208DF85A
:106E2000140007990A7B43F25820C8F2020050F878
:106E300022000A6801A901F047FC0090009830B1D7
:106E4000FFE70098FFF758FFADF8260009E0089823
:106E500006900798007B069908700020ADF8260080
:106E6000FFE7BDF826000AB080BD0000000000006A
:106E700080B584B0039002910192039808B1FFE7B6
:106E80000BE043F6A000C8F2020043F23A51C8F208
:106E900002014FF4AD7205F003FF029808B1FFE75D
:106EA0000BE043F66100C8F2020043F23A51C8F227
:106EB000020140F25B1205F0F3FE019808B1FFE712
:106EC0000BE043F26540C8F2020043F23A51C8F2C7
:106ED00002014FF4AE7205F0E3FE039800900098B3
:106EE000017843F25820C8F2020050F821000299BC
:106EF000019A02F019F9002004B080BD00000000E2
:106F000084B0DDF814C0DDF810C003900291019246
:106F10000093049820B1FFE7059804990860FFE703
:106F200004B070470000000084B0DDF814C0DDF844
:106F300010C00390029101920093029800F00F009C
:106F4000059901F0010140EA0110039908600198D8
:106F500020B1FFE7009801990860FFE704B070478F
:106F600080B582B00190FFE740F2A420C2F2000099
:106F700000684FF0FF3118F047FA16F07DFB6420EF
:106F800008F0EEFD01282ED1FFE740F2C831C2F231
:106F900000010420087040F29410C2F2000000903A
:106FA0000022026042604FF07E538360C360036141
:106FB00046F26663C3F6E67343614CF6CD43C3F60F
:106FC000CC73836143F23333C3F6B373C3610B787D
:106FD00040F83320097800EBC1014CF6CD40CBF6E8
:106FE0004C604860FFE716F05BFBBDE70000000067
:106FF00080B586B043F61050C8F20200049000221B
:107000000392114618F000F9039A0146049840F2E1
:10701000A423C2F2000319606B460A2159601321B0
:10702000196044F66121C8F200014FF4805318F052
:10703000EBFB0590059820B1FFE7059818F018FEC6
:10704000FFE706B080BD000080B582B00190FFE789
:1070500040F2CC20C2F2000000684FF0FF3118F07F
:10706000D3F9F5E70000000080B588B01AF03CF8CD
:1070700012F042FFFFE713F093F8D0B1FFE743F6B9
:107080000652C8F20202002004900121059111F07D
:10709000C3FFC82006901AF0C7FE0498059943F66E
:1070A0000052C8F2020211F0B7FF06981AF0BCFEB7
:1070B000E1E743F60C50C8F202000390002202926E
:1070C000114618F0A1F8029A0146039840F2CC2329
:1070D000C2F2000319606B46022159601321196046
:1070E00044F64931C8F200014FF4806318F08CFB7C
:1070F0000790079820B1FFE7079818F0B9FDFFE760
:1071000008B080BD0000000080B540F2A821C2F2A6
:1071100000014FF07E5EC1F804E0C1F808E04CF6D3
:10712000CD42C3F6CC524A614CF28F2CC3F6F54CDB
:10713000C1F80CC049F69A13C3F619730B618A6142
:107140000020C861086240F65031C2F20001C1F867
:1071500004E0C1F808E04A61C1F80CC00B618A6123
:10716000C861086240F6B831C2F20001C1F804E01B
:10717000C1F808E04A61C1F80CC00B618A61C861BE
:10718000086240F68431C2F20001C1F804E0C1F89F
:1071900008E04A61C1F80CC00B618A61C8610862ED
:1071A00040F6EC31C2F20001C1F804E0C1F808E099
:1071B0004A61C1F80CC00B618A61C861086280BD78
:1071C00080B50020C4F23F00012100F025F880BD09
:1071D00080B544F20000C4F23F00022100F01CF828
:1071E00080BD00000000000080B548F20000C4F23D
:1071F0003F00032100F010F880BD000000000000F7
:1072000080B54CF20000C4F23F00042100F004F805
:1072100080BD00000000000080B582B001900091A8
:1072200001980069C007B0B1FFE740F6A420C2F2A0
:107230000000006878B1FFE740F6A420C2F2000029
:1072400002680198009B40F69021C2F2000151F8BB
:1072500023109047FFE70198D0F81001C007B0B1A4
:10726000FFE740F6BC20C2F20000006878B1FFE7FB
:1072700040F6BC20C2F2000002680198009B40F674
:10728000A821C2F2000151F823109047FFE702B095
:1072900080BD00000000000080B540F6C020C2F2B2
:1072A0000000406808B1FFE70BE043F28A70C8F2C3
:1072B000020043F2DC71C8F2020140F2D37205F021
:1072C000EFFC40F6C020C2F20000416844F200002A
:1072D000C4F2390000F0C4F980BD000000000000D5
:1072E00080B540F6C020C2F20000806808B1FFE718
:1072F0000BE043F29B70C8F2020043F2DC71C8F26B
:10730000020140F2DB7205F0CBFC40F6C020C2F275
:107310000000816848F20000C4F2390000F0A0F9D2
:1073200080BD00000000000080B540F6C020C2F221
:107330000000C06808B1FFE70BE043F2AC70C8F290
:10734000020043F2DC71C8F2020140F2E37205F080
:10735000A7FC40F6C020C2F20000C1684CF2000059
:10736000C4F2390000F07CF980BD0000000000008C
:1073700080B540F6C020C2F20000006908B1FFE706
:107380000BE043F2BD70C8F2020043F2DC71C8F2B8
:10739000020140F2EB7205F083FC40F6C020C2F21D
:1073A000000001690020C4F23A0000F059F980BDE4
:1073B00084B0029001910092029808B1FFE70BE0BF
:1073C00043F62B00C8F2020043F2DC71C8F202015E
:1073D00040F2CA2205F064FC0298806820B9FFE7F9
:1073E00000208DF80F0040E00298006840B9FFE7E8
:1073F0000298406820B9FFE700208DF80F0034E0C4
:10740000009804280ED8FFE7029882680099B2FB22
:10741000F1F000FB112020B1FFE700208DF80F00F4
:1074200023E01EE09DF80000800758B1FFE70298B6
:1074300080680099884204D0FFE700208DF80F0093
:1074400013E00DE0029882680099B2FBF1F000FBB6
:10745000112020B1FFE700208DF80F0005E0FFE7C5
:10746000FFE701208DF80F00FFE79DF80F0004B043
